:020000040800F2
:10000000482A0024390300083D430008B9200008AD
:1000100039430008A30400085D74000800000000D4
:100020000000000000000000000000001948000867
:100030006D07000800000000AF4500082D480008CB
:100040005303000853030008530300085303000838
:100050005303000853030008530300085303000828
:1000600053030008530300085303000875050008F4
:100070005303000853030008530300085303000808
:1000800053030008530300085303000853030008F8
:1000900053030008530300085303000853030008E8
:1000A00053030008530300085303000853030008D8
:1000B000594B00085303000853030008530300087A
:1000C00053030008530300085303000853030008B8
:1000D00053030008914B0008530300085303000822
:1000E00071070008530300080000000053030008D4
:1000F0005303000853030008530300085303000888
:100100005303000853030008530300085303000877
:100110005303000853030008530300085303000867
:100120005303000853030008530300085303000857
:100130005303000853030008530300085303000847
:1001400000000000000000000000000000000000AF
:100150005303000853030008530300085303000827
:100160005303000853030008530300085303000817
:1001700053030008414300085303000853030008D9
:1001800053030008530300085303000853030008F7
:1001900053030008530300085303000853030008E7
:1001A00053030008530300085303000853030008D7
:1001B00053030008530300085303000853030008C7
:1001C00053030008530300085303000853030008B7
:1001D00053030008530300085303000853030008A7
:1001E0005303000853030008530300085303000897
:1001F0005303000853030008530300085303000887
:100200005303000853030008530300085303000876
:100210005303000853030008530300085303000866
:1002200053030008530300085303000800000000B4
:1002300053030008530300080000000053030008A4
:100240005303000853030008530300085303000836
:100250005303000853030008530300085303000826
:100260005303000853030008530300085303000816
:100270005303000853030008530300080000000064
:100280005303000853030008530300080000000054
:10029000000000005303000800F002F800F03CF8F2
:1002A0000AA090E8000C82448344AAF10107DA45D1
:1002B00001D100F031F8AFF2090EBAE80F0013F0E7
:1002C000010F18BFFB1A43F00103184768740000C0
:1002D00088740000103A24BF78C878C1FAD8520751
:1002E00024BF30C830C144BF04680C6070470000B0
:1002F0000023002400250026103A28BF78C1FBD82F
:10030000520728BF30C148BF0B6070471FB507F0C8
:100310007CF91FBD10B510BD00F08AF81146FFF73B
:10032000F5FF07F0BBF800F0A8F803B4FFF7F2FF01
:1003300003BC00F0AFF800000948804709480047B7
:10034000FEE7FEE7FEE7FEE7FEE7FEE7FEE7FEE785
:10035000FEE7FEE704480549054A064B70470000E2
:100360005D4A00089902000848220024482A002417
:10037000482600244826002410B5203AC0F00B80FF
:10038000B1E81850203AA0E81850B1E81850A0E899
:100390001850BFF4F5AF5FEA027C24BFB1E81850F3
:1003A000A0E8185044BF18C918C0BDE810405FEA63
:1003B000827C24BF51F8043B40F8043B08BF7047DF
:1003C000D20728BF31F8023B48BF11F8012B28BFE4
:1003D00020F8023B48BF00F8012B70474FF00002A5
:1003E00000B5134694469646203922BFA0E80C502B
:1003F000A0E80C50B1F12001BFF4F7AF090728BF06
:10040000A0E80C5048BF0CC05DF804EB890028BF81
:1004100040F8042B08BF704748BF20F8022B11F0AA
:10042000804F18BF00F8012B704770477047704726
:10043000754600F02BF8AE4605006946534620F09D
:100440000700854618B020B5FFF784FFBDE82040BF
:100450004FF000064FF000074FF000084FF0000B80
:1004600021F00701AC46ACE8C009ACE8C009ACE833
:10047000C009ACE8C0098D46704710B50446AFF31B
:1004800000802046BDE81040FFF74FBF004870478E
:10049000E421002401491820ABBEFEE7260002003B
:1004A000704700BFFEE70346042B15D007DC7BB185
:1004B000012B0ED0022B0DD0032B12D10BE0202BE1
:1004C0000BD0212B0AD0222B09D0232B09D107E0F6
:1004D00008E007E006E005E004E003E002E001E0F8
:1004E00000E000BF00BF0020704700207047000000
:1004F00010B500220449054804F005FE04490348EC
:1005000004F0F2FD002010BDE4190024DC050024F5
:10051000E411002470B504460D462146034804F05A
:10052000E3FD024804F0ACFD002070BDDC050024B2
:1005300010B503460C460021084610BD2DE9F041D8
:1005400004460D4600260A48D0F8BC72D7F81402BB
:1005500010B10120BDE8F0812A462146044804F08C
:10056000D2FD034804F082FE06463046F2E7000062
:10057000DC05002410B500BF07480068C0F3401038
:1005800048B101200549087000BF20200249886059
:1005900000BF00F005F810BD000002400C00002470
:1005A00010B50C4802F04AFF0B48002102460B4BE5
:1005B0005B5CD35823F00103084C645C135100BF0B
:1005C00000BF0748806807490840801C04498860CC
:1005D00000BF10BD0000014000000240147600087A
:1005E00000200240C0FFFF7F30B500201E49087088
:1005F00000BF20201D49886000BF08460021421529
:1006000003461B4C645C1C4464686FF30F04144382
:10061000174D6D5C1D446C6000BF00BF0246144B5B
:100620005B5CD35843F00103114C645C135100BF71
:1006300000BF1048806810490840001D0D498860BF
:1006400000BF00BF084680680B490840401C0949AC
:10065000886000BF00BF0948006840F001000749FA
:10066000086000BF30BD00000D0000240000024003
:100670001476000800200240C0FFFF7F0000014008
:1006800070B5344802F0DAFE334800210246334B9D
:100690005B5CD35823F48023304C645C135100BF5F
:1006A0004FF4403203462D4C645C1C5924F4403412
:1006B00014432A4D6D5C5C5100BF04460020284A5B
:1006C000284B05462146402D08D1244E365C0E4469
:1006D000F260224E365C0E44B36007E01F4E365C7B
:1006E0000E44B2601D4E365C0E44F36000BF1A48E3
:1006F00000210246194B5B5CD35843F01003174CA2
:10070000645C135100BF012015494039C96821F0CC
:1007100003010143124A403AD16000BF4FF001107B
:1007200040F2FF7100F4803242F000420C4B403B3B
:100730009B680D4C23401A43094B403B9A6000BF15
:1007400000BF00BF064840388068C00F0028F8D1BD
:1007500070BD000000000140000002401476000857
:1007600040200240DC010024C0FFFE3F7047000033
:100770004FF400500F4909680140814201D1012125
:1007800000E00021A1B14FF400500A49086000BF09
:1007900000BF4004C06840F00100C906C86000BF47
:1007A00000BF0846006840F00100086000BF00BFBD
:1007B000704700008800005872B600BFFEE700BF17
:1007C0004FF08040006820F001004FF08041086049
:1007D00000BF00BF6FF00100086100BF00BF084606
:1007E000C06840F00100C86000BF704770B50A489B
:1007F0000468001D0568001D0668344454B10822D1
:100800000649204601F05AFC0422044910312846CA
:1008100001F054FC70BD000000E8F11F4600002408
:1008200070B5044600F0ECF906462546681C10B188
:1008300004480078054400BF00F0E2F9801BA8429C
:10084000FAD370BD840000242DE9F84304460D4618
:100850000027DFF83893CE4884421DD0CD4884422B
:100860001AD0CD48844217D0CC48844214D0CC480A
:10087000844211D0CB4884420ED0CB4884420BD066
:10088000CA48844208D0CA48844205D0C948844234
:1008900002D0C948844200D103E0B321C7A006F0CA
:1008A000FBFD288880B220B128686FF30F0000B9E3
:1008B00003E0B421C1A006F0EFFD686830B36868BA
:1008C000012823D06868112820D0686802281DD02C
:1008D000686812281AD06868B0F5881F16D0686852
:1008E000B0F5041F12D06868B0F5441F0ED06868D8
:1008F000B0F5901F0AD06868B0F5081F06D0686888
:10090000B0F5481F02D06868032800D103E0B52184
:10091000AAA006F0C1FD31E10121B940286800EA32
:100920000108B8F1000F70D0287900F00300012809
:1009300004D0287900F00300022823D1E86840B1F0
:10094000E868012805D0E868022802D0E868032892
:1009500000D103E0C42199A006F09EFDA6687900AD
:100960000320884086437900E86888400643A660F3
:1009700066680120B84086432879C0F30010B8406B
:1009800006436660287900F00300032816D0A868A3
:1009900028B1A868012802D0A868022800D103E085
:1009A000D62186A006F078FDE6687900032088400D
:1009B00086437900A86888400643E660287900F0FD
:1009C0000300022842D1724884421DD071488442FB
:1009D0001AD07148844217D07048844214D07048AD
:1009E000844211D06F4884420ED06F4884420BD0AD
:1009F0006E48844208D06E48844205D06D488442D7
:100A000002D06D48844201D104E0AEE0E3216BA046
:100A100006F042FD28690F2800D803E0E42167A012
:100A200006F03AFDF90804F1200050F8216078073B
:100A3000C10E0F20884086437907C90E2869884077
:100A40000643F90804F1200040F821602668790087
:100A5000032088408643287900F00300790088400D
:100A600006432660686800F4403000287DD000BF4F
:100A70006148006840F002005F490860084600686D
:100A800000F00200009000BF00BF5C48B90850F8B9
:100A90002160B807010F0F20884086433C488442FC
:100AA00001D100202DE03B48844201D1012028E003
:100AB0003948844201D1022023E03848844201D1E0
:100AC00003201EE03648844201D1042019E0354855
:100AD000844201D1052014E03348844201D106202C
:100AE0000FE03248844201D107200AE030488442B6
:100AF00001D1082005E02F48844201D1092000E0FF
:100B00000A20B907090F884006433C48B90840F855
:100B100021604FF0B040066826EA0806686800F4D5
:100B2000801008B146EA08064FF0B04006604668FB
:100B300026EA0806686800F4001008B146EA0806CC
:100B40004FF0B0404660D9F8046026EA08066868AD
:100B500000F4003008B146EA0806C9F80460D9F884
:100B6000006026EA0806686800E006E000F48030CD
:100B700008B146EA0806C9F800607F1C2868F840FA
:100B800000287FF4C9AEBDE8F8830000800000585B
:100B9000000002580004025800080258000C0258D5
:100BA000001002580014025800180258001C025885
:100BB0000020025800240258002802582E2E2F44EC
:100BC0007269766572732F53544D33324837787893
:100BD0005F48414C5F4472697665722F5372632F90
:100BE00073746D3332683778785F68616C5F6770F3
:100BF000696F2E6300000000F44402580804005896
:100C000001480068704700007C0000240348006829
:100C10000349097808440149086070477C000024B2
:100C20008400002410B5032000F012F901F014F93B
:100C300010490968C1F303210F4A515C01F01F01FB
:100C400020FA01F40B48006800F00F001146085C20
:100C500000F01F0024FA00F008490860084804600A
:100C6000032000F00FF808B1012010BD00F036F8A5
:100C70000020FAE718440258E476000878000024BF
:100C80007400002470B504461148007808B90120AA
:100C900070BD0F4800784FF47A71B1FBF0F00D4948
:100CA0000968B1FBF0F5284601F0ECF908B1012024
:100CB000EEE7102C07D200222146501E00F05EF80D
:100CC0000548046001E00120E2E70020E0E70000C1
:100CD00084000024740000248000002408B500BFB4
:100CE0000848006840F002000649086008460068AD
:100CF00000F00200009000BF00BF052000F0A8F83F
:100D000008BD0000F444025810B50446002C00DB76
:100D100003E0BD210AA006F0BFFB204600280DDB42
:100D200000BF00BF00F01F02012191404209920064
:100D300002F1E022C2F8001100BF00BF00BF10BDE9
:100D40002E2E2F447269766572732F53544D3332B1
:100D5000483778785F48414C5F4472697665722FF6
:100D60005372632F73746D3332683778785F6861BC
:100D70006C5F636F727465782E6300002DE9F05F1D
:100D800080460D461646102E00D203E0A92121A070
:100D900006F082FB102D00D203E0AA211DA006F070
:100DA0007BFB06F05DFB044620462A46334600F0F6
:100DB0000701C1F1070ABAF1040F02D94FF0040A82
:100DC00001E0C1F1070AD14601F1040ABAF1070FA7
:100DD00002D24FF0000A01E0A1F1030AD4464FF01D
:100DE000010A0AFA09FAAAF1010A0AEA020A0AFA47
:100DF0000CFA4FF0010B0BFA0CFBABF1010B0BEAF9
:100E0000030B4AEA0B073946404606F031FBBDE8C2
:100E1000F09F00002E2E2F447269766572732F5357
:100E2000544D3332483778785F48414C5F4472699B
:100E30007665722F5372632F73746D33326837780F
:100E4000785F68616C5F636F727465782E63000011
:100E500010B50446072C07D0062C05D0052C03D06E
:100E6000042C01D0032C00D103E0912109A006F04D
:100E700013FB00BF04F00701154A10684FF6FF028C
:100E80001040144A024342EA0120114A106000BF98
:100E900010BD00002E2E2F447269766572732F5399
:100EA000544D3332483778785F48414C5F4472691B
:100EB0007665722F5372632F73746D33326837788F
:100EC000785F68616C5F636F727465782E63000091
:100ED0000CED00E00000FA0501460A680120C1F8A7
:100EE0000005002081F8F404906940F000609061F2
:100EF000506D024B184350650020704703000010EE
:100F0000704702461068416200207047F0B5034602
:100F100015461868446A21B944EA05401E68B06263
:100F200019E01868806A04EB1044002208E0186891
:100F300000F5827050F8220004EB1044501CC2B23D
:100F4000481E9042F3D844EA0547186800F58270BD
:100F50004E1E40F826700020F0BD10B50446D4F8AF
:100F6000080504F0EBFD10BD70B504460D4605EB19
:100F7000C50304F13C0101EB8301CA682946D4F89A
:100F8000080504F0D6FC70BD70B504460D4605EBAF
:100F9000C50304F51F7101EB8301CA682946D4F823
:100FA000080504F04AFD70BD10B50446D4F80805E4
:100FB00004F0C7FD10BD2DE9F04104460D4605F0D3
:100FC0008000802808D105F00F0000EBC00104F17B
:100FD0003C0000EB810607E005F00F0000EBC001CC
:100FE00004F51F7000EB81063146206805F0F2FF22
:100FF00007463846BDE8F08170B504460E4606F057
:10100000800080280AD106F00F0000EBC00104F137
:101010003C0000EB81050120687009E006F00F003C
:1010200000EBC00104F51F7000EB81050020687023
:1010300006F00F00287000BF94F8BC04012801D10D
:10104000022070BD012084F8BC0400BF294620683E
:1010500005F05CFB00BF002084F8BC0400BF00BFAB
:10106000EFE770B504460E4606F00F00616888424F
:1010700001D9012070BD06F0800080280AD106F059
:101080000F0000EBC00104F13C0000EB81050120E2
:10109000687009E006F00F0000EBC00104F51F7056
:1010A00000EB8105002068700020A87006F00F009A
:1010B000287000BF94F8BC04012801D10220D9E7B0
:1010C000012084F8BC0400BF2946206805F014FD07
:1010D00000BF002084F8BC0400BF00BFCAE702467E
:1010E00001F00F0000EBC00302F51F7000EB83005E
:1010F000406970472DE9F04705460E4690461F4669
:101100004FF0000906F0800080280AD106F00F0099
:1011100000EBC00105F13C0000EB81040120607090
:1011200009E006F00F0000EBC00105F51F7000EBB1
:1011300081040020607006F00F002070C4F8088061
:101140002771607808B120786083022F01D10020D8
:10115000607100BF95F8BC04012802D10220BDE8EF
:10116000F087012085F8BC0400BF2146286805F0FF
:10117000D9F900BF002085F8BC0400BF4846EEE75F
:101180002DE9F04105460E461746984606F00F0039
:1011900000EBC00105F51F7000EB8104E760C4F8A7
:1011A000108000206061607006F00F002070E86819
:1011B000012800D1E7612A7B2146286805F030FD2F
:1011C0000020BDE8F08170B504460D4605F00F0023
:1011D0006168884201D9012070BD05F08000802837
:1011E0000AD105F00F0000EBC00104F13C0000EB58
:1011F00081060120707007E005EBC50104F51F7042
:1012000000EB8106002070700120B07005F00F0027
:10121000307000BF94F8BC04012801D10220DBE744
:10122000012084F8BC0400BF3146206805F0ABFC07
:1012300005F00F0028B9217B04F2C442206805F0B4
:1012400023FC00BF002084F8BC0400BF00BFC3E73C
:101250002DE9F04105460E461746984606F00F0068
:1012600000EBC00105F13C0000EB8104E760C4F82D
:101270001080002060610120607006F00F00207077
:10128000E868012800D1E7612A7B2146286805F03B
:10129000C7FC0020BDE8F0812DE9FE4F0446D4F8DC
:1012A00000B05E46206805F07CFF002874D12068FD
:1012B00005F0B6FF08B9BDE8FE8F40F6080080597A
:1012C000C0F30D20C4F8FC04206805F0A9FF00F06D
:1012D0000200022805D12068406900F00200216860
:1012E0004861206805F09CFF00F01000102845D1EF
:1012F0002068806920F0100021688861DBF8209068
:1013000009F00F0000EBC00104F51F7000EB810A2B
:10131000C9F3434002281AD147F6F07009EA0000E9
:1013200030B3C9F30A125846DAF80C1005F07DFF05
:10133000C9F30A11DAF80C000844CAF80C00C9F322
:101340000A11DAF814000844CAF8140010E0C9F3CE
:10135000434006280CD1082204F2C441584605F047
:1013600064FFC9F30A11DAF814000844CAF814003B
:101370002068806940F0100021688861206805F0CD
:101380004FFF00F40020B0F5002F7BD1002520682E
:1013900005F016FF029072E003E3029800F00100EE
:1013A000002868D0E9B2206805F02DFF804608F0DB
:1013B000010048B1012106F5306000EB4510816065
:1013C0002946204602F0F6FF08F00800082809D157
:1013D000082106F5306000EB451081602946204663
:1013E00002F0B6FF08F01000102805D1102106F514
:1013F000306000EB4510816008F00200022824D123
:10140000DBF8140000F08000802807D140F60400CB
:10141000805940F4806140F60400815105EBC5011C
:1014200004F51F7000EB810A9AF80300012806D129
:1014300000208AF80300E9B2204600F0BDFA02213C
:1014400006F5306000EB4510816008F02000202890
:1014500005D1202106F5306000EB4510816008F4CD
:101460000050B0F5005F06D14FF4005106F5306032
:1014700000EB451081606D1C0298400802900298B4
:1014800000288AD1206805F0CBFE00F48020B0F55A
:10149000802F7DD1206805F089FE029000259AE01A
:1014A000029800F00100002873D0E9B2206805F02E
:1014B00091FE804608F00100F0B305F00F01012015
:1014C0008840019040F634008159019821EA0000DB
:1014D00040F634018851012106F5106000EB4510FB
:1014E0008160E068012824D105EBC50104F13C00CE
:1014F00000EB810005EBC502C16804F13C0000EB84
:1015000082008068014405EBC50204F13C0000EB59
:101510008200C1606DB905EBC50104F13C0000EB30
:101520008100006928B904F2C4420121206805F055
:10153000ABFAE9B2204600E001E0FFF715FD08F044
:101540000800082805D1082106F5106000EB4510B9
:10155000816008F01000102805D1102106F51060F8
:1015600000EB4510816008F04000402805D1402183
:1015700006F5106000EB4510816008F002000228BB
:101580001DD12946584605F0CDFD05EBC50101E00A
:1015900025E01CE004F13C0000EB810A9AF803000E
:1015A000012806D100208AF80300E9B2204600F0A5
:1015B000FAF9022106F5106000EB4510816008F091
:1015C0008000802803D12946204602F095FF6D1C3B
:1015D000029840080290029800287FF461AF2068CA
:1015E00005F01EFE00F00040B0F1004F1CD140F6A7
:1015F0000400805920F0010140F60400815194F864
:10160000F404012807D1002084F8F40400212046C6
:10161000FFF776FC02E0204600F07CFB2068406982
:1016200000F0004021684861206805F0F9FD00F4F1
:101630000060B0F5006F0ED140F60800805900F050
:10164000010010B1204600F0BDFB2068406900F4A5
:10165000006021684861206805F0E2FD00F000604C
:10166000B0F1006F19D12068406900F00060216876
:10167000486194F8F40468B9012084F8F4042068FF
:10168000406DC0F38300C4F8F80401212046FFF741
:1016900037FC02E0204600F095FB206805F0C0FD15
:1016A00000F48050B0F5805F7ED140F60400805990
:1016B00020F0010140F6040081511021206805F05E
:1016C00031FD002732E04FF67F3106F5106000EB68
:1016D0004710816006F5106000EB4710006820F4A9
:1016E000001106F5106000EB471001604FF67F31E6
:1016F00006F5306000EB4710816006F5306000EBC6
:101700004710006820F4001106F5306000EB471028
:10171000016006F5306000EB4710006840F00061A2
:1017200006F5306000EB471001607F1C6068B8422E
:10173000C9D840F61C00805940F0011140F61C0049
:101740008151206B70B1D6F8840840F00B01C6F8C7
:10175000841840F64400805940F00B0140F64400E4
:1017600081510FE040F61400805942F22B010843EA
:1017700040F614018851081F805940F00B014FF4C6
:1017800001608151D6F8000820F4FE60C6F8000818
:10179000217B04F2C442206805F076F92068406994
:1017A00000F48050216800E000E04861206805F006
:1017B00037FD00F40050B0F5005F17D1206804F049
:1017C00019FF206805F0DAFC206100F01FFB009093
:1017D000227C2068009905F0ABFD204600F082FADB
:1017E0002068406900F4005021684861206805F0D5
:1017F00017FD00F00800082808D1204600F091FAF3
:101800002068406900F0080021684861206805F000
:1018100007FD00F08000802818D1DBF8180020F0C8
:101820008000CBF8180001250DE005EBC50104F59B
:101830001F7000EB8100C078012803D1E9B2204677
:10184000FFF7B9FB6D1C6068A842EED8206805F070
:10185000E7FC00F48010B0F5801F2DD1012522E0B7
:1018600006F5106000EB4510D0F8009005EBC501BF
:1018700004F13C0000EB81000079012812D109F04D
:101880000040B0F1004F0DD1012105EBC50204F17C
:101890003C0000EB8200C170E8B240F080012046BD
:1018A000FFF789FB6D1C6068A842D9D820684069A1
:1018B00000F4801021684861206805F0B1FC00F454
:1018C0000010B0F5001F44D1012538E006F5306066
:1018D00000EB4510D0F8009005EBC50104F51F7032
:1018E00000EB81000079012828D109F00040B0F117
:1018F000004F23D109F4803094F8FC1401F0010169
:1019000088421BD1012105EBC50204F51F7000EBD5
:101910008200C170DBF8180040F08000CBF818009E
:10192000DBF8140000F0800040B940F60400805954
:1019300040F4007140F60400815103E06D1C6068C2
:10194000A842C3D800BF2068406900F40010216895
:101950004861206805F064FC00F08040B0F1804FE1
:1019600008D12046FFF7F9FA2068406900F080406E
:1019700021684861206805F053FC00F00400042849
:101980000FD12068D0F8049009F00400042802D197
:101990002046FFF709FB2068406840EA09002168FB
:1019A000486000BF87E470B504460D462946D4F868
:1019B000080504F037F970BD70B504460D46294698
:1019C000D4F8080504F052F970BD000070B58AB073
:1019D000044614B901200AB070BD5F4920688842EE
:1019E00003D05E492068884200D103E087215CA0D3
:1019F00005F052FD266894F8BD0428B9002084F84B
:101A0000BC04204600F0C8F8032084F8BD04F06B45
:101A100000F4807008B90021E160206805F02CF81E
:101A2000282204F110016846FEF7A6FC94E80F0096
:101A300004F0F4FD20B1022084F8BD040120CAE7BF
:101A40000021206805F021FC002531E0012105EB93
:101A5000C50204F13C0000EB8200417005EBC501BA
:101A600004F13C0000F8215005EBC50100EB8100BA
:101A70004583002105EBC50204F13C0000EB820028
:101A8000017105EBC50204F13C0000EB82008160AE
:101A900005EBC50204F13C0000EB8200C16005EBE0
:101AA000C50204F13C0000EB82000161681CC5B274
:101AB0006068A842CAD800252AE0002105EBC502CB
:101AC00004F51F7000EB8200417005EBC50104F5C1
:101AD0001F7000F82150002105EBC50200EB8200C9
:101AE000017105EBC50204F51F7000EB82008160F7
:101AF00005EBC50204F51F7000EB8200C16005EB29
:101B0000C50204F51F7000EB82000161681CC5B2BC
:101B10006068A842D1D8282204F110016846FEF777
:101B20002BFC94E80F0004F0BBFE20B1022084F8E7
:101B3000BD0401204FE7002084F83800012084F81C
:101B4000BD04606A012802D12046FFF7C5F920686C
:101B500004F094FE00203EE700000840000004402E
:101B60002E2E2F447269766572732F53544D333283
:101B7000483778785F48414C5F4472697665722FC8
:101B80005372632F73746D3332683778785F68618E
:101B90006C5F7063642E630010B586B00446142138
:101BA00001A8FEF71BFC4949206888427ED1C0008D
:101BB0004749096821F440110143454A116000BFBB
:101BC00000BF4448006840F080704249086000BF90
:101BD00000BF3F488C30006840F004003C498C3125
:101BE00008600846006800F00400009000BF00BFD5
:101BF00000BF0846006840F0010008600846006821
:101C000000F00100009000BF00BF00BF0846006860
:101C100040F0020008600846006800F002000090F2
:101C200000BF00BF0D200190022002900020039011
:101C3000022004900A20059001A92748FEF704FE1F
:101C4000282001900220029000200390022004909E
:101C50000A20059001A92148FEF7F6FD43F623402E
:101C600001900220029000200390022004900A209C
:101C7000059001A91A48FEF7E7FD00BF144884301B
:101C8000006840F00070124984310860084600681E
:101C900000F00070009000BF00BF00BF0846006861
:101CA00040F0806008600846006800E00CE000F04A
:101CB0008060009000BF00BF022200214D20FFF78E
:101CC0005DF84D20FFF720F806B010BD000004407D
:101CD000544402580C4802580008025800000258A8
:101CE0000004025870B504460125206908B9002592
:101CF00006E02069022801D1012501E0FEF75CFD24
:101D00002946D4F8080504F05AF8D4F8080504F078
:101D100001F870BD10B50446D4F8080504F030F899
:101D200010BD10B50446D4F8080504F034F810BD11
:101D300070B504460D4600BF94F8BC04012801D1DB
:101D4000022070BD012084F8BC0400BF84F8385024
:101D50002946206805F0CDFA00BF002084F8BC04B5
:101D600000BF00BFEDE710B5044604F2C441D4F84B
:101D7000080504F03BF810BD70B50446256800BFA7
:101D800094F8BC04012801D1022070BD012084F820
:101D9000BC0400BFE86B00F4807030B9A06A012871
:101DA00003D1A86B40F48030A863206805F088F95F
:101DB000206804F051FD00BF002084F8BC0400BF7F
:101DC00000BFE2E710B50446D4F8080504F06BF84C
:101DD0002068D0F8000E40F001002168C1F8000E24
:101DE000206A28B10348006840F0060001490860F5
:101DF00010BD000010ED00E00348006840F0807066
:101E000001490860704700000C48025810B500F006
:101E100023F80D490968C1F303210C4A515C01F014
:101E20001F0120FA01F40848006800F00F00114675
:101E3000085C00F01F0024FA00F00549086005481E
:101E400004600846006810BD18440258E476000893
:101E50007800002474000024F0B5824E366806F045
:101E6000380636B1082E15D0102E15D0182E7DD17B
:101E700014E07C4E103E3668C6F3401646B1794EEB
:101E8000103E3668C6F3C107774E26FA07F000E029
:101E90007548E5E07548E3E07548E1E0714E1836B5
:101EA000366806F003046F4E18363668C6F305111F
:101EB0006C4E1C36366806F001056A4E24363668CC
:101EC000C6F3CC0616FB05F601EE106AB8EE410A21
:101ED000002971D024B1012C50D0022C6DD16DE0BD
:101EE000604E103E3668C6F340163EB35D4E103E5F
:101EF0003668C6F3C1075C4E26FA07F301EE103AC6
:101F0000F8EE411A01EE101AB8EE411A81EE812A5C
:101F10009FED581AC0EE011A524E20363668C6F3AD
:101F2000080601EE106AB8EE411A31EE811AF7EE9A
:101F3000001A31EE211A62EE010A1EE001EE101ABB
:101F4000B8EE411ADFED4C1A81EE812A9FED491A55
:101F5000C0EE011A434E20363668C6F3080601EE7D
:101F6000106AB8EE411A31EE811A00E076E0F7EE21
:101F7000001A31EE211A62EE010A5BE001EE101A3E
:101F8000B8EE411A9FED3D2AC2EE011A9FED391AB3
:101F900080EE012A334E20363668C6F3080601EE7D
:101FA000106AB8EE411A32EE011AB7EE002A31EE8D
:101FB000021A61EE810A3DE04EE01DE001EE101ACA
:101FC000B8EE411ADFED2E1A81EE812A9FED291A13
:101FD000C0EE011A234E20363668C6F3080601EE1D
:101FE000106AB8EE411A31EE811AF7EE001A31EE9E
:101FF000211A62EE010A1DE001EE101AB8EE411A34
:102000009FED1E2AC2EE011A9FED1A1A80EE012AD8
:10201000144E20363668C6F3080601EE106AB8EE94
:10202000411A32EE011AB7EE002A31EE021A61EEC1
:10203000810A00BF00BF0B4E20363668C6F3462625
:10204000721C01EE102AB8EE411AC0EE811ABCEEE5
:10205000E11A11EE100A00E0002001E0034800BF81
:1020600000BFF0BD104402580090D00300093D00AD
:1020700040787D01000000460024744C0024744A1E
:1020800020BCBE4B70B504462546681EB0F1807F6B
:1020900001D301200FE0681E4FF0E02148610F21BD
:1020A0004FF0FF3005F0E4F900204FF0E0218861A7
:1020B00007200861002070BD00BFFEE730B50B4669
:1020C000002100BF16E00A24B4EB107F05D93024AC
:1020D00004EB107403F8114005E0412404EB107484
:1020E0000A3C03F81140000100254C00641C1D55FA
:1020F0004C1CE1B29142E6DB30BD00002DE9F0411D
:1021000005460C4600266F48854202D06E4885423F
:1021100000D104E04FF4C9716CA005F0BDF920684E
:10212000B0F5803F35D02068B0F5003F31D0206851
:10213000B0F5403F2DD0206858B32068B0F5802F0F
:1021400027D02068B0F5002F23D02068B0F5402FAD
:102150001FD02068B0F5801F1BD02068B0F5A01FED
:1021600017D02068B0F5C01F13D02068B0F5E01F6D
:102170000FD02068B0F5001F0BD02068B0F5101FFD
:1021800007D02068B0F5201F03D02068B0F5301FBD
:1021900000D104E040F293114CA005F07DF9606895
:1021A000A0B16068062811D0606807280ED060686A
:1021B00005280BD06068092808D06068012805D080
:1021C0006068022802D06068032800D104E040F271
:1021D00095113EA005F060F96068002847D0A0681E
:1021E00038B1A068B0F5004F03D0A068B0F5404FFB
:1021F00000D104E04FF4CC7134A005F04DF9E06853
:1022000078B3E068B0F5807F2BD0E068B0F5007F50
:1022100027D0E068B0F5407F23D0E068B0F5E06FEC
:102220001FD0E068B0F5806F1BD0E068B0F5E06FBC
:1022300017D0E068B0F5006F13D0E068B0F5A06F7C
:102240000FD0E068B0F5E06F0BD0E068B0F5E06F5C
:1022500007D0E068B0F5006F03D0E068B0F5006F1C
:1022600000D104E040F2991118A005F015F91548C5
:10227000854208D1234800F0FDF80746224800F0C7
:10228000F9F8384302E0214800F0F4F8A8B9606892
:1022900060B1D4E900010843A1680843E16808433C
:1022A000A9681B4A11400843A86007E0A8681849BC
:1022B000084021680843A86000E001263046BDE8D8
:1022C000F081000000230240006302582E2E2F44AC
:1022D0007269766572732F53544D3332483778786C
:1022E0005F48414C5F4472697665722F5372632F69
:1022F00073746D3332683778785F6C6C5F616463D8
:102300002E630000002002400021024000600258BD
:10231000E030C0FF70B505460C46002644488542B3
:1023200005D04448854202D04348854200D104E0AC
:1023300040F2433141A005F0AFF8206858B1206861
:10234000042808D02068082805D020680C2802D06E
:102350002068102800D104E040F2453137A005F094
:102360009BF86068D8B36068B0F1805F37D0606870
:10237000B0F1005F33D06068B0F1405F2FD060688B
:10238000B0F1804F2BD06068B0F1A04F27D06068CB
:10239000B0F1C04F23D06068B0F1E04F1FD060684B
:1023A000B0F1004F1BD06068B0F1104F17D06068DB
:1023B000B0F1204F13D06068B0F1304F0FD060689B
:1023C000B0F1404F0BD06068B0F1504F07D060685B
:1023D000B0F1604F03D06068B0F1704F00D104E0FD
:1023E00040F2463115A005F057F8A06818B1A06872
:1023F000B0F5804F00D104E040F247310FA005F066
:102400004BF8284600F036F878B9A16820680843F0
:10241000E96844F21C0291430843E860286920F00F
:10242000704061680843286100E00126304670BDB5
:102430000020024000210240006002582E2E2F444E
:102440007269766572732F53544D333248377878FA
:102450005F48414C5F4472697665722F5372632FF7
:1024600073746D3332683778785F6C6C5F61646366
:102470002E6300000146886800F0010070470000EC
:1024800070B505460C4600269548854205D095480E
:10249000854202D09448854200D104E04FF46C712B
:1024A00092A004F0F9FF2068E8B32068B0F5806FCF
:1024B00051D02068B0F5846F4DD02068B0F5886F9A
:1024C00049D02068B0F58C6F45D02068B0F5906F8A
:1024D00041D02068B0F5946F3DD02068B0F5986F7A
:1024E00039D02068B0F59C6F35D02068B0F5A06F6A
:1024F00031D02068B0F5A46F2DD02068B0F5A86F5A
:1025000029D02068B0F5AC6F25D02068B0F5B06F49
:1025100021D02068B0F5B46F1DD02068B0F5B86F39
:1025200019D0206800E016E0B0F5BC6F13D0206829
:10253000B0F5C06F0FD02068B0F5C46F0BD0206825
:10254000B0F5C86F07D02068B0F5CC6F03D0206815
:10255000B0F5D06F00D104E040F2B13163A004F0D7
:102560009BFF606860B36068012829D0606802281A
:1025700026D06068032823D06068042820D06068D3
:1025800005281DD0606806281AD06068072817D073
:102590006068082814D06068092811D060680A288B
:1025A0000ED060680B280BD060680C2808D06068DB
:1025B0000D2805D060680E2802D060680F2800D171
:1025C00004E040F2B23149A004F066FF606858B3FD
:1025D000A068F8B1A068B0F5803F1BD0A068B0F546
:1025E000403F17D0A068B0F5A02F13D0A068B0F579
:1025F000E02F0FD0A068B0F5102F0BD0A068B0F579
:10260000302F07D0A068B0F5502F03D0A068B0F5E8
:10261000702F00D104E040F2B53134A004F03CFF4B
:10262000E06808B1A06800B904E040F2B9312FA019
:1026300004F032FFE06818B1E068B0F5005F00D147
:1026400004E04FF46F7129A004F026FF206940B127
:102650002069012805D02069032802D020690228BA
:1026600000D104E040F2BD3120A004F015FF606904
:1026700018B16069B0F5805F00D104E040F2BE316E
:102680001AA004F009FF2846FFF7F4FE20BB60689B
:1026900070B1A16820680843E168084321690843D4
:1026A00061690843E9681F4A11400843E8600BE08C
:1026B000E168206808432169084361690843E968C3
:1026C000184A11400843E8606068296B21F00F0147
:1026D0000143296300BF00E00126304670BD0000C1
:1026E0000020024000210240006002582E2E2F449C
:1026F0007269766572732F53544D33324837787848
:102700005F48414C5F4472697665722F5372632F44
:1027100073746D3332683778785F6C6C5F616463B3
:102720002E6300001CC0F0FF08B50549096801438D
:10273000034A1160114609680140009100BF08BDBD
:10274000E04402580349096881434FF0B042C2F89F
:1027500084107047840000580349096881434FF092
:10276000B042C2F8941070479400005803490968B9
:1027700081434FF0B042C2F8A4107047A400005843
:102780000349096881434FF0B042C2F88010704796
:10279000800000580349096881434FF0B042C2F8F5
:1027A00090107047900000580349096881434FF02A
:1027B000B042C2F8A0107047A00000584FF0B041DE
:1027C000496801434FF0B042516070474FF0B0414B
:1027D000496A01434FF0B042516270474FF0B04137
:1027E000496C01434FF0B042516470474FF0B04123
:1027F000096801434FF0B042116070474FF0B0419B
:10280000096A01434FF0B042116270474FF0B04186
:10281000096C01434FF0B0421164704770B5044633
:102820000025002000B903E09F21ABA004F034FE96
:10283000A08800F4005000B903E0A021A6A004F095
:102840002BFEB349A068084000B903E0A121A2A073
:1028500004F022FE207B10B1207B012800D103E090
:10286000A2219DA004F018FE607B012805D0607BAA
:10287000022802D0607B032800D103E0A32196A0A8
:1028800004F00AFE207B002876D0A07B40B1A07B1C
:10289000012805D0A07B022802D0A07B032800D10C
:1028A00003E0A8218CA004F0F7FD2068002851D097
:1028B000607B00F0010048B1206896490968014337
:1028C0004FF0B042C2F8801000BF02E02068FFF76E
:1028D00057FF607B00F0020002280AD120688D4972
:1028E000091D096801434FF0B042C2F8841000BFCF
:1028F00002E02068FFF726FFA07B58B3A07B0128E9
:1029000004D002280FD0032821D119E020684FF00D
:10291000B041496881434FF0B042516000BF206828
:10292000FFF764FF15E020684FF0B041096881436C
:102930004FF0B042116000BF2068FFF73FFF08E092
:102940002068FFF753FF2068FFF738FF01E00125FB
:1029500000BF00BF6068002853D0607B00F001001A
:1029600058B160686B491031096801434FF0B042BB
:10297000C2F8901000BF03E099E06068FFF70AFF1B
:10298000607B00F0020002280AD1606861491431BE
:10299000096801434FF0B042C2F8941000BF02E052
:1029A0006068FFF7D9FEA07B58B3A07B012804D054
:1029B00002280FD0032821D119E060684FF0B04100
:1029C000496A81434FF0B042516200BF6068FFF72F
:1029D00015FF15E060684FF0B041096A81434FF080
:1029E000B042116200BF6068FFF7F0FE08E0606867
:1029F000FFF704FF6068FFF7E9FE01E0012500BF73
:102A000000BFA068002864D0607B00F0010050B1D6
:102A1000A06840492031096801434FF0B042C2F834
:102A2000A01000BF02E0A068FFF7BEFE607B00F0D0
:102A3000020002280AD1A0683649243109680143FE
:102A40004FF0B042C2F8A41000BF02E0A068FFF748
:102A50008DFEA07B50B3A07B012804D002280FD0AC
:102A6000032821D119E0A0684FF0B041496C81439F
:102A70004FF0B042516400BFA068FFF7C7FE15E0F9
:102A8000A0684FF0B041096C81434FF0B04211642F
:102A900000BFA068FFF7A2FE08E0A068FFF7B6FE3F
:102AA000A068FFF79BFE01E0012500BF11E0206850
:102AB000FFF766FE6068FFF76DFEA068FFF774FE23
:102AC0002068FFF73FFE6068FFF746FEA068FFF74B
:102AD0004DFE284670BD00002E2E2F44726976658B
:102AE00072732F53544D3332483778785F48414CD6
:102AF0005F4472697665722F5372632F73746D33FE
:102B000032683778785F6C6C5F657874692E630023
:102B100000000AFF800000582DE9F04106460C46EF
:102B20008C4886421DD08C4886421AD08B488642FB
:102B300017D08B48864214D08A48864211D08A48E2
:102B400086420ED0894886420BD08948864208D0FA
:102B50008848864205D08848864202D08748864207
:102B600000D103E0CD2186A004F096FC2068002867
:102B700004D92068B0F5803F00D203E0CE2180A0C8
:102B800004F08AFC606840B16068012805D0606884
:102B9000022802D06068032800D103E0CF2178A08A
:102BA00004F07AFC206928B12069012802D020694C
:102BB000022800D103E0D02171A004F06DFC206850
:102BC00090FAA0F0B0FA80F7BCE00121B94020688B
:102BD00000EA0105002D76D06068012802D0606807
:102BE000022830D1A06840B1A068012805D0A068B3
:102BF000022802D0A068032800D103E0E22160A0EF
:102C000004F04AFCA068B16805FB05F202EB420241
:102C1000914305FB05F242431143B16000BFE068F8
:102C200010B1E068012800D103E0E82154A004F0CD
:102C300033FCE16820687268824300FB01F31A43A9
:102C4000726000BF00BF2069F16805FB05F202EB6E
:102C50004202914305FB05F242431143F16000BF7C
:102C6000606802285FD1606960B36069012829D07B
:102C70006069022826D06069032823D0606904288F
:102C800020D0606905281DD0606906281AD06069C7
:102C9000072817D06069082814D06069092811D066
:102CA00060690A280ED060690B280BD060690C2877
:102CB00008D060690D2805D060690E2802D06069CF
:102CC0000F2801D104E03CE0F5212DA004F0E4FB45
:102CD000FF2D12D86069326A05FB05F1694369432B
:102CE000C1EB011122EA010105FB05F26A436A43C7
:102CF00042431143316200BF15E06069290A49432C
:102D00002A0A51432A0A5143C1EB0112716A9143C5
:102D10002A0A52432B0A5A432B0A5A43424311436D
:102D2000716200BF00BF6068316805FB05F202EB0D
:102D30004202914305FB05F242431143316000BF5B
:102D400000BF7F1C2068F84000287FF43EAFBDE83C
:102D5000F0810000000002580004025800080258E8
:102D6000000C0258001002580014025800180258B3
:102D7000001C025800200258002402580028025863
:102D80002E2E2F447269766572732F53544D333251
:102D9000483778785F48414C5F4472697665722F96
:102DA0005372632F73746D3332683778785F6C6C4D
:102DB0005F6770696F2E630002480068C0F30020EF
:102DC000704700000044025810B504469DED020A09
:102DD00001EE104AB8EE412A01EE101AB8EE411A7F
:102DE000C2EE011A01EE103AB8EE411ADFED0C2ADC
:102DF00081EE222A01EE102AB8EE411A32EE011AB3
:102E000021EE811AF0EE410AB8EE401AC0EE811AA6
:102E1000F0EE610ABCEEE01A11EE100A10BD0000DF
:102E20000000004610B50146C8B2074BC218080E94
:102E3000C1F30424A04013681840C1F30423D84010
:102E400041EA004010BD00004C4402582DE9F84F03
:102E500004460027B94600BF4848006800F0030058
:102E60008046B8F1000F09D0B8F1010F10D0B8F1C9
:102E7000020F12D0B8F1030F14D114E000F0AEFA33
:102E800028B100F0A3FAC1083D4820FA01F70BE091
:102E9000FFF792FF00B13B4F06E000F08FFA00B160
:102EA000394F01E000BF00BF00BF0020206060601C
:102EB000A06000BF31480068C0F3051500BF00BF27
:102EC0002E4808300068C0F30800461C00BF00BF51
:102ED0002A48001D006800F0010030B100BF2748FB
:102EE0000C300068C0F3CC008146002D44D000BFF8
:102EF0002248001D0068C0F3004078B100BF1F48A1
:102F000008300068C0F34620401C82464B463246DB
:102F1000294600903846FFF757FF206000BF17484A
:102F2000001D0068C0F3404078B100BF134808306E
:102F30000068C0F30640401C82464B463246294694
:102F400000903846FFF740FF606000BF0B48001D4F
:102F50000068C0F3804078B100BF084808300068BE
:102F6000C0F30660401C82464B463246294600901C
:102F70003846FFF729FFA060BDE8F88F28440258C3
:102F80000090D00300093D0040787D012DE9F84F05
:102F900004460027B94600BF4848006800F0030017
:102FA0008046B8F1000F09D0B8F1010F10D0B8F188
:102FB000020F12D0B8F1030F14D114E000F00EFA92
:102FC00028B100F003FAC1083D4820FA01F70BE0F0
:102FD000FFF7F2FE00B13B4F06E000F0EFF900B161
:102FE000394F01E000BF00BF00BF002020606060DB
:102FF000A06000BF31480068C0F3053500BF00BFC6
:103000002E4810300068C0F30800461C00BF00BF07
:103010002A48001D0068C0F3001030B100BF2748E7
:1030200014300068C0F3CC008146002D44D000BFAE
:103030002248001D0068C0F3C04078B100BF1F489F
:1030400010300068C0F34620401C82464B46324692
:10305000294600903846FFF7B7FE206000BF1748AA
:10306000001D0068C0F3005078B100BF1348103055
:103070000068C0F30640401C82464B463246294653
:1030800000903846FFF7A0FE606000BF0B48001DAF
:103090000068C0F3405078B100BF084810300068A5
:1030A000C0F30660401C82464B46324629460090DB
:1030B0003846FFF789FEA060BDE8F88F2844025823
:1030C0000090D00300093D0040787D012DE9F84FC4
:1030D00004460026B14600BF4A48006800F00300DD
:1030E0008046B8F1000F09D0B8F1010F10D0B8F147
:1030F000020F12D0B8F1030F14D114E000F06EF9F2
:1031000028B100F063F9C1083F4820FA01F60BE04E
:10311000FFF752FE00B13D4E06E000F04FF900B15E
:103120003B4E01E000BF00BF00BF00202060606098
:10313000A06000BF33480068C0F3055500BF00BF62
:10314000304818300068C0F30800471C00BF00BFBB
:103150002C48001D0068C0F3002030B100BF294892
:103160001C300068C0F3CC008146002D47D0EEB380
:1031700000BF2448001D0068C0F3805078B100BF34
:10318000204818300068C0F34620401C82464B4659
:103190003A46294600903046FFF716FE206000BFF1
:1031A0001848001D0068C0F3C05078B100BF154832
:1031B00018300068C0F30640401C82464B463A4631
:1031C000294600903046FFF7FFFD606000BF0D48C4
:1031D000001D0068C0F3006040B100BF094818300E
:1031E0000068C0F30660401C824600E007E04B46E2
:1031F0003A46294600903046FFF7E6FDA060BDE85C
:10320000F88F0000284402580090D00300093D00C8
:1032100040787D010248006800F47060704700004B
:10322000184402582DE9FE43044600254D488442C7
:1032300002D04D48844200D104E040F221214BA04D
:1032400004F02AF900BF2046FFF7ECFD554A811A29
:1032500090426AD018DC544AA0EB0201904251D04F
:103260000BDCA0F1E060A0F10800A8B3B0F5407F4E
:103270001DD0B0F5803F70D145E0B1F57D4F4BD00A
:10328000B1F5803F69D146E0484A881A914256D04C
:1032900006DCB1F5407F47D0B1F5803F5DD14FE00E
:1032A000B0F57D4F52D0B0F5803F56D14DE001F0E2
:1032B00087FA8046FFF7AEFFC0F303203C49085C65
:1032C00000F01F0028FA00F7384601F043FA0646DE
:1032D00001F064FA054641E0FFE701F071FA80462B
:1032E000FFF798FFC0F303203149085C00F01F008E
:1032F00028FA00F7384601F02DFA064601F03CFAAC
:1033000005462BE000BF00F079F818B16846FFF7DA
:103310003DFE019D22E000BF00F078F818B168463C
:10332000FFF7D4FE019D19E000BF00F057F828B167
:1033300000F04CF8C1081F4820FA01F50EE000BF6C
:10334000FFF73AFD00B11C4D08E000BF00F04EF859
:1033500008B14FF4004501E0FFE700BF00BF284679
:10336000BDE8FE8308030007080000072E2E2F4447
:103370007269766572732F53544D333248377878BB
:103380005F48414C5F4472697665722F5372632FB8
:1033900073746D3332683778785F6C6C5F72636317
:1033A0002E63000008000307080301070003010063
:1033B000F47600080090D00300093D000248006840
:1033C000C0F34040704700000044025802480068C3
:1033D00000F01800704700000044025802480068DE
:1033E000C0F38000704700000044025802480068A3
:1033F000C0F3400070470000704402580248006863
:10340000C0F3C060704700000044025802480068E2
:10341000C0F3407070470000004402580349096837
:1034200021F00F010143014A11607047184402580E
:10343000014908607047000074000024016821F011
:10344000010101607047816821F08001816070474F
:1034500070B504460D465748844226D0B4F1804FDB
:1034600023D05548844220D0544884421DD054482B
:1034700084421AD05348844217D05348844214D00F
:103480005248844211D0524884420ED0514884425E
:103490000BD05148844208D05048844205D050484F
:1034A000844202D04F48844200D104E040F26F11C0
:1034B0004DA003F0F1FF686858B16868102808D083
:1034C0006868402805D06868202802D068686028AD
:1034D00000D104E04FF4B87143A003F0DDFFE868C9
:1034E00038B1E868B0F5807F03D0E868B0F5007FB8
:1034F00000D104E040F271113BA003F0CDFF26683B
:103500002C4884420ED0B4F1804F0BD02A4884421C
:1035100008D02A48844205D02948844202D02B484A
:10352000844204D126F07000696840EA010621480F
:10353000844217D0B4F1804F14D01F48844211D078
:103540001E4884420ED01E4884420BD01F4884423D
:1035500008D02248844205D02148844202D0214824
:10356000844204D126F44070E96840EA01062660EE
:10357000A868E06200BF2888A06200BF0D488442AE
:103580000BD01248844208D01448844205D0144815
:10359000844202D01348844203D12869206300BFCB
:1035A00000BF00BF606940F00100606100BF002003
:1035B00070BD000000000140000400400008004011
:1035C000000C0040001000400014004000040140C6
:1035D00000180040001C0040002000400040014056
:1035E00000440140004801402E2E2F447269766548
:1035F00072732F53544D3332483778785F48414CBB
:103600005F4472697665722F5372632F73746D33E2
:1036100032683778785F6C6C5F74696D2E63000078
:103620008268024B1A400A4382607047F8BFFEFF6F
:10363000426822F070020A4342607047F8B50546BE
:103640000C46012700269A48854214D099488542A5
:1036500011D0994885420ED0984885420BD09848A1
:10366000854208D09748854205D09748854202D0C8
:103670009648854200D104E040F2031194A003F083
:103680000BFF206800B3206801281DD020680228A5
:103690001AD02068032817D02068042814D0206886
:1036A000052811D0206806280ED0206807280BD0E6
:1036B0002068082808D02068092805D020680A2832
:1036C00002D020680B2800D104E04FF4827180A062
:1036D00003F0E2FE8D496068884200D804E040F2C1
:1036E00005117BA003F0D8FEA068B0F1805F05D083
:1036F000A06818B1A068B0F5805F00D104E04FF475
:10370000837173A003F0C8FEE068B0F5805F09D054
:10371000E06838B1E068B0F5405F03D0E068B0F52C
:10372000005F00D104E040F2071169A003F0B4FE8D
:10373000206938B12069B0F5806F03D02069B0F5F9
:10374000C06F00D104E04FF4847161A003F0A4FEC7
:10375000606940B16069042805D06069082802D01A
:1037600060690C2800D104E040F2091158A003F070
:1037700093FEA06958B1A069B0F5807F07D0A06919
:10378000B0F5007F03D0A069B0F5407F00D104E020
:103790004FF485714EA003F07FFEE06918B1E06937
:1037A000B0F5004F00D104E040F20B1148A003F047
:1037B00073FE284600F0B2F8002876D12169A0688F
:1037C000084361690843E16908432968504A114088
:1037D00008432860E068696821F44051014369604A
:1037E00000BFA069A96821F440710143A96000BF2E
:1037F0002F48854204D14748FFF714FD064636E0BE
:103800002C48854204D14448FFF70CFD06462EE0C3
:103810002948854204D14048FFF704FD064626E0CA
:103820002648854204D13C48FFF7FCFC06461EE0D2
:103830002348854204D13848FFF7F4FC064616E0D9
:103840002048854204D13348FFF7ECFC06460EE0E1
:103850001D48854204D13048FFF7E4FC064606E0E7
:103860001A48854203D12C48FFF7DCFC06469EB17E
:10387000606888B100276068009031462846E36997
:10388000226800F051F8E868102800D304E04FF4F3
:10389000B8710FA003F000FE2068E96A21F00F0163
:1038A00082B21143E96200BF00BF3846F8BD000094
:1038B000001001400044004000480040004C00401F
:1038C000005000400014014000780040007C00409F
:1038D0002E2E2F447269766572732F53544D3332F6
:1038E000483778785F48414C5F4472697665722F3B
:1038F0005372632F73746D3332683778785F6C6CF2
:103900005F75736172742E630000000020BCBE00FE
:10391000F369FFEF08030007080000070146086885
:1039200000F0010070470000F0B51D46059C0B2A11
:1039300026D82CB3B5F5004F15D1D7B2DFF844C067
:103940005CF82770B1FBF7F77F0007EB5407B7FB74
:10395000F4F7BBB24FF6F07703EA0706C3F342076A
:103960003E43C6600CE0D7B2DFF818C05CF82770A1
:10397000B1FBF7F707EB5407B7FBF4F7BFB2C7602B
:10398000F0BD00000477000808B5014608464FF076
:10399000E0221269009200BF421C02B1401C06E006
:1039A0004FF0E022126902F4803202B1401E00287A
:1039B000F6D108BD70B596B0002013901490159004
:1039C00018210DA8FCF70AFD002009900A900B9021
:1039D0000C90182103A8FCF701FD00209E490968FE
:1039E00021F4403101439C4A116000BF20209A49D4
:1039F000803109680143984A803211601146096894
:103A00000140019100BF00BF04209349883109683B
:103A10000143914A883211601146096801400191C1
:103A200000BF00BF102003900320049000200790E7
:103A300003A98A48FFF770F8894800210922894BB9
:103A4000042414FB01330446A04201D1002400E009
:103A5000082453F8243023F0FF031343814C04253A
:103A600005FB01447E4DA84201D1002500E0082558
:103A700044F8253000BF7A4800210A4603467A4CB4
:103A8000645C1C5924F0C0041443774D6D5C5C5198
:103A900000BF4FF4403200BF734C645C1C5924F4E7
:103AA00040341443704D6D5C5C5100BF0A4600BF4A
:103AB0006D4C645C1C5924F4907414436A4D6D5C25
:103AC0005C5100BF00BF00BF674C645C1C5924F40C
:103AD00000741443644D6D5C5C5100BF021500BF5F
:103AE000614C645C1C5924F4806414435E4D6D5C2D
:103AF0005C5100BFC21400BF5B4C645C1C5924F4D1
:103B0000C0541443584D6D5C5C5100BF920000BF1F
:103B1000554C645C1C5924F4C0441443524D6D5CF4
:103B20005C5100BF00BF02464F4B5B5C13445B69B6
:103B300023F004034C4C645C1444636100BF002018
:103B40004A49096940F2034291430143474A1161DE
:103B500000BF1390159013A91046FEF7DBFB4FF43E
:103B6000A4600D9000200E900F90109012900DA95F
:103B70003E48FEF785FC002009900A9009A93C48C0
:103B8000FEF7BCFA4FF480603849C96821F44061FF
:103B90000143364AD16000BF00BF104680683549F6
:103BA00008401146886000BF00BF0846806832495F
:103BB000084040F080501146886000BF2F480068E0
:103BC0002F49B0FBF1F000EB800040000A21B0FB70
:103BD000F1F0029002E00298401E02900298002844
:103BE000F9D122490620274A01F13004050A04EBE5
:103BF00085031C681F258540AC43950E85402C43EA
:103C00001C6000BF1046002201F11404C0F340659F
:103C100004EB85031C68C0F304560725B540AC438C
:103C2000C0F3045502FA05F52C431C6000BF40F2B6
:103C3000FF710E4AC0321268C0F313039A4301F0B9
:103C40001804114BE34003401A43084BC3F8C0204B
:103C500000BF16B070BD000058440258000802585A
:103C600000000240000802407C760008002002406C
:103C700000230240C0FFFF5FC0FFFF7F74000024ED
:103C8000400D03001000C010FFFF0F002DE9F841A8
:103C900001203149096801432F4A11601146096822
:103CA0000140009100BF00BF0B212C4B1B68C3F3E8
:103CB0000220002401250346C3F1070CBCF1040FC8
:103CC00002D94FF0040C01E0C3F1070C674603F181
:103CD000040CBCF1070F02D24FF0000C01E0A3F17D
:103CE000030C66464FF0010C0CFA07FCACF1010C1A
:103CF0000CEA040C0CFA06FC4FF0010808FA06F86E
:103D0000A8F1010808EA05084CEA080200BF0029EA
:103D100004DB1007030E1248435407E01007040E9B
:103D20000E480C3001F00F031B1FC45400BF0B20C2
:103D300000280DDB00BF00BF00F01F0201219140F1
:103D40004209920002F1E022C2F8001100BF00BF58
:103D500000BFBDE8F8810000D84402580CED00E037
:103D600000E400E02DE9F0418AB0002006900790C1
:103D70000890099018216846FCF730FB0420FEF7F4
:103D8000D3FC8020FEF7D0FC0120FEF7CDFC022002
:103D9000FEF7CAFC02200104574A916100BF0221CC
:103DA0005648574A00F0030352F8232022EA1042F3
:103DB000030C93FAA3F3B3FA83F303F01F0301FA9E
:103DC00003F31A434E4B00F0030443F8242000BFD2
:103DD0000803069000200790089001208DF8240029
:103DE0008DF8250002208DF8260006A8FEF716FDA6
:103DF0004FF400500121404AD26810FB00F303EB5E
:103E000043039A4310FB00F34B431A433A4BDA60E7
:103E100000BF00211A46126810FB00F303EB4303B6
:103E20009A4310FB00F34B431A43334B1A6000BF15
:103E30000220009001200190002002900390049045
:103E400069461846FEF768FE28212E4B1B68C3F30F
:103E50000220012403250346C3F1070CBCF1040F23
:103E600002D94FF0040C01E0C3F1070C674603F1DF
:103E7000040CBCF1070F02D24FF0000C01E0A3F1DB
:103E8000030C66464FF0010C0CFA07FCACF1010C78
:103E90000CEA040C0CFA06FC4FF0010808FA06F8CC
:103EA000A8F1010808EA05084CEA080200BF002949
:103EB00004DB1007030E1448435407E01007040EF8
:103EC00010480C3001F00F031B1FC45400BF282002
:103ED00000280DDB00BF00BF00F01F020121914050
:103EE0004209920002F1E022C2F8001100BF00BFB7
:103EF00000BF0AB0BDE8F081000802580300F000DE
:103F0000080400580CED00E000E400E000B587B0C4
:103F1000142102A8FCF762FA01201B490968014339
:103F2000194A1160114609680140019100BF00BFA4
:103F30000020ADF80800039014480490002005907C
:103F4000069002A91248FFF783FA00BF10480068E4
:103F500040F080000E49086000BF00210C48FFF7C8
:103F60005FFB20210A48FFF763FB002008494968EE
:103F700021F470010143064A516000BF1046FFF76B
:103F800062FA07B000BD0000F0440258204EF0FF76
:103F9000000001402DE9F04186B0142101A8FCF792
:103FA0001DFA0120444909680143434A1160114642
:103FB00009680140009100BF00BF1C213F4B1B68F6
:103FC000C3F30220022425460346C3F1070CBCF1CB
:103FD000040F02D94FF0040C01E0C3F1070C67464F
:103FE00003F1040CBCF1070F02D24FF0000C01E00A
:103FF000A3F1030C66464FF0010C0CFA07FCACF180
:10400000010C0CEA040C0CFA06FC4FF0010808FA4B
:1040100006F8A8F1010808EA05084CEA080200BF02
:10402000002904DB1007030E2548435407E010075E
:10403000040E22480C3001F00F031B1FC45400BFB4
:104040001C2000280DDB00BF00BF00F01F02012173
:1040500091404209920002F1E022C2F8001100BF33
:1040600000BF00BF44F61F60ADF8040000200290BE
:10407000952003900020049001A94FF08040FFF7A5
:10408000E7F900BF4FF08040006820F080004FF05B
:104090008041086000BF00214FF08040FFF7C0FA68
:1040A00000214FF08040FFF7C3FA4FF08040FFF748
:1040B000CAF906B0BDE8F081E84402580CED00E012
:1040C00000E400E02DE9F04190B0202108A8FCF7C1
:1040D00085F9182102A8FCF781F97D4800BFC2B21A
:1040E0007C4BD118020EC0F30424A2400B6823EAD3
:1040F0000202C0F30743C0F30424A3401A430A603A
:1041000000BF00BF10207349A43109680143714A00
:10411000A4321160114609680140019100BF00BF3F
:1041200001206C499431096801436A4A9432116054
:10413000114609680140019100BF00BF4FF4C06003
:104140000290022003900020049005900690072022
:10415000079002A96048FEF7DFFC25215F4B1B6832
:10416000C3F30220032402250346C3F1070CBCF16C
:10417000040F02D94FF0040C01E0C3F1070C6746AD
:1041800003F1040CBCF1070F02D24FF0000C01E068
:10419000A3F1030C66464FF0010C0CFA07FCACF1DE
:1041A000010C0CEA040C0CFA06FC4FF0010808FAAA
:1041B00006F8A8F1010808EA05084CEA080200BF61
:1041C000002904DB1007030E4548435407E010079D
:1041D000040E42480C3001F00F031B1FC45400BFF3
:1041E000252000280DDB00BF00BF00F01F020121C9
:1041F00091404209920002F1E022C2F8001100BF92
:1042000000BF00BF002008904FF4E130099000206B
:104210000A900B900C900C200D9000200E900F90A7
:1042200008A93048FFF70AFA2E48002100BF00BF56
:1042300000BF00F1080353E8002F61F35F7243E809
:104240000024002CF5D100BF00BF2648002100BF8C
:1042500000BF00BF00F1080353E8003F23F0606394
:1042600043EA416200F1080343E80024002CF1D145
:1042700000BF00BF00BF1B48006820F00050194974
:10428000086000BF00BF0846406820F490404860C6
:104290000846806820F02A00886000BF00BF0846FA
:1042A000006840F00100086000BF00BF00BF0D487B
:1042B000C069C0F340500028F8D000BF0948C06969
:1042C000C0F380500028F1D010B0BDE8F0810000AC
:1042D000080300074C440258000002580CED00E0AF
:1042E00000E400E00010014010B501220E490F4823
:1042F00001F0DCFA08B1FCF75FFA0D490B4801F058
:1043000013FE08B1FCF758FA0A49084800F0E0FE2D
:1043100008B1FCF751FA054801F008FF08B1FCF7B5
:104320004BFAFDF769FD10BD10000024DC050024E8
:10433000940000246000002400BFFEE700BFFEE7F9
:1043400010B50248FCF7A8FF10BD0000B808002413
:104350002DE9F04704460D4626683746D6F84080DA
:1043600007F5306000EB4510D0F808901048804504
:104370000BD909F40040B0F5004F06D14FF40041CD
:1043800007F5306000EB451081602046FDF7EBFC3F
:104390000748804508D9E068012805D104F2C442E5
:1043A0000121206802F070FB0020BDE8F0870000CA
:1043B0000A30544F2DE9F04705460C46D5F80090D9
:1043C0004E46D9F840A006F5306000EB4410D0F816
:1043D0000880E868012855D108F0080008280FD1A6
:1043E000434882450BD908F40040B0F5004F7BD11B
:1043F0004FF4004106F5306000EB4410816073E03B
:1044000008F02000202806D1202106F5306000EBBE
:104410004410816068E008F02800002864D1344826
:1044200082450CD908F40040B0F5004F07D14FF495
:10443000004106F5306000EB4410816054E004EB6D
:10444000C40105F51F7000EB810706F5306000EB35
:104450004410396A0069C0F31200081A786164B91F
:10446000386930B905F2C4420121286802F00CFB1A
:1044700003E07969F8680844F860E1B22846FCF77F
:1044800083FD31E01B4882451BD108F40040B0F5A4
:10449000004F07D14FF4004106F5306000EB4410A7
:1044A000816021E008F02000202805D1202106F5B8
:1044B000306000EB44108160E1B22846FCF764FDF7
:1044C00012E06CB904EBC40105F51F7000EB81002C
:1044D000006928B905F2C4420021286802F0D4FA24
:1044E000E1B22846FCF750FD0020BDE8F08700004F
:1044F0000A30544F0A31544F2DE9F84F07460E4603
:10450000D7F80090C84606EBC60107F13C0000EB67
:104510008104D4E90410884202D90120BDE8F88F53
:10452000D4E90401451AA068A84200D2A568E81C95
:104530004FEA900A17E0D4E90401451AA068A8429E
:1045400000D2A568E81C4FEA900A387BABB2F2B201
:1045500000904846E16802F05FFFE0682844E060B0
:1045600060692844606108F5106000EB46108069BE
:1045700080B2504506D3D4E90410884202D22069A3
:104580000028D8D1D4E9040188420ED806F00F01E2
:10459000012000FA01FB40F6340050F8080020EA40
:1045A0000B0040F6340141F808000020B6E77047E0
:1045B00000BF6748006840F400206549086000BFFC
:1045C0000020096821F0C00141EA8011604A1160B1
:1045D00000BF00BF1146096821F0200141EA4011E7
:1045E000116000BF1920111F096821F47C3141EAD4
:1045F0000031121F116000BF4FF4A07054490C31FC
:1046000009686FF30801421E1143514A0C321160D0
:1046100000BF28201146096821F47E42411E42EA6B
:1046200041214B4A0C32116000BF04201146096839
:1046300021F4FE02411E42EA0141454A0C3211605A
:1046400000BF02201146096821F0FE42411E42EAE5
:1046500001613F4A0C32116000BF00BF3C482C385A
:10466000006840F080603A492C39086000BF00BF04
:1046700000BF37482C380068C0F3C0600028F7D06E
:1046800000BF3348006840F400003149086000BFB3
:104690000220096821F4406141EA80212C4A11601E
:1046A00000BF00201146096821F4007141EA402151
:1046B000116000BF0520111F096821F07C7141EADB
:1046C0000051121F116000BF602021491431096898
:1046D0006FF30801421E11431D4A1432116000BFDE
:1046E00002201146096821F47E42411E42EA41211E
:1046F000174A1432116000BF0A201146096821F4DC
:10470000FE02411E42EA0141114A1432116000BF0B
:1047100002201146096821F0FE42411E42EA016171
:104720000B4A1432116000BF00BF09482C380068E2
:1047300040F0805006492C39086000BF00BF00BF20
:1047400003482C380068C0F340700028F7D0704749
:104750002C440258014600BF0548006800F00F00D5
:10476000044A105C00F01F0021FA00F070470000BE
:1047700018440258F4760008014600BF0548006856
:1047800000F070000009044A105C00F01F0221FADA
:1047900002F070471C440258F4760008014600BF3E
:1047A0000548006800F4E060000A044A105C00F06C
:1047B0001F0221FA02F070471C440258F4760008E8
:1047C0003EB5002400BF1048006800F0380030B14A
:1047D00008280BD010280BD0182810D10AE0FEF7BB
:1047E000F5FDC108094820FA01F409E0084C07E08A
:1047F000084C05E06846FEF729FB009C00E000BF7E
:1048000000BF20463EBD0000104402580090D00377
:1048100000093D0040787D01704730B501460A46E9
:104820001378521C147843EA042030BD10B5FCF70D
:10483000EDF910BD10B502208449096821F00F017F
:104840000143824A116000BF00BF00BF7F4800687B
:1048500000F00F000228F8D100BF7D49096821F05F
:10486000070101437A4A116000BF4FF44040784984
:104870000C31096821F440410143754A0C32116042
:1048800000BF00BF00BF72480C300068C0F340306A
:104890000028F7D000BF6F48006840F480306D49B1
:1048A000086000BF00BF00BF6A480068C0F3404016
:1048B0000028F8D0022067492831096821F0030157
:1048C0000143644A2832116000BF00BF101D006818
:1048D00040F48030111D086000BF00BF084600682A
:1048E00040F48020086000BF0220096821F00C011C
:1048F00041EA8001121D116000BF002011460968C5
:1049000021F0020141EA4001116000BF0520111FA2
:10491000096821F47C7141EA0011121F116000BF87
:10492000A0204C49303109686FF30801421E114341
:10493000484A3032116000BF02201146096821F454
:104940007E42411E42EA4121424A3032116000BF9C
:1049500000BF1146096821F4FE02411E42EA0141EE
:104960003C4A3032116000BF00BF1146096821F097
:10497000FE42411E42EA0161364A3032116000BFF8
:1049800000BF3448006840F080703249086000BFC2
:1049900000BF00BF2F480068C0F340600028F8D077
:1049A0000820FEF73BFD03202A491031096821F059
:1049B00007010143274A1032116000BF00BF00BF4A
:1049C00024481030006800F038001828F7D1002083
:1049D00020491831096821F4706101431D4A1832D9
:1049E000116000BF0820FEF719FD402019491C3155
:1049F000096821F070010143164A1C32116000BFA2
:104A000000011146096821F4E0610143116000BF13
:104A10004020111F096821F070010143121F11602D
:104A200000BF00BF0B492031096821F0700101432C
:104A3000084A2032116000BF0748FEF7F9FC032046
:104A4000FCF720F908B1FBF7B7FE10BD00200052BB
:104A50000C480258004402580084D71734480068B4
:104A600040F47000324908603248006800F00F00DE
:104A7000072806D22F48006820F00F00C01D2D49DE
:104A800008602D48006840F001002B4908600020B4
:104A900029491031086028480068284908402649FB
:104AA00008602448006800F00F00072806D9214854
:104AB000006820F00F00C01D1E49086000201E493C
:104AC00018310860091D0860091D08601C481A4952
:104AD000283108601B48091D08601B48091D086033
:104AE0000020091D08601848091D08600020091DE4
:104AF00008601548091D08600020091D08600E485F
:104B0000006820F480200C49086000200A496031C8
:104B100008600E4800686FF30F00B0F1005F02D22A
:104B200001200B49086043F2D2000A49086070472F
:104B300088ED00E000200052004402587FEDF6EAC4
:104B4000000202020000FF01800201010010005C6F
:104B5000088100510040005201200C49087000BF3C
:104B60008007C06820F001004FF08041C86000BF9E
:104B700000BF0846006820F00100086000BF00BFC9
:104B80006FF00100086100BF704700000D000024B5
:104B90000B48406A0B490C4A128888540A4800881E
:104BA000642803DB01200949087002E0002007495E
:104BB000087005480088401C0349088070470000C1
:104BC000001001401401002402000024040000240D
:104BD0002DE9F04104460D46D4F8C87204F5307052
:104BE000D4F8D41250F8210010B90320BDE8F081A8
:104BF00004F53070D4F8D41250F8216005F00F009D
:104C000000EB800104F1140000EB8100406838B330
:104C100005F00F0000EB800104F1140000EB8100AF
:104C2000416805F00F0000EBC00207F13C0000EB0B
:104C300082008068B1FBF0F200FB121080B9002105
:104C400005F00F0000EB800204F1140000EB82007D
:104C5000416000231A462946204601F032F917E048
:104C60000020C6F8140204F53170D4F8D41250F8BC
:104C70002100006960B1D6F8080204F53171D4F85A
:104C8000D42251F822102A460B6906F50471984780
:104C90000020ABE770B504460E4604F53070D4F83A
:104CA000D41250F82150D4F8D41250F8210008B989
:104CB000032070BD3146204600F056FFC5F80C02B7
:104CC000D5F8040204F53171D4F8D43251F8231028
:104CD000CA6805F5037190470020EAE770B50446FD
:104CE0000D4630480178204600F010FE00212D4886
:104CF000007800F00F0000EB800204F1140000EBDC
:104D00008200018228480178204600F0FFFD002142
:104D10002548007800F00F0000EB800204F5AA702F
:104D200000EB8200018221480178204600F0EEFD70
:104D300000211E48007800F00F0000EB800204F113
:104D4000140000EB820001821848007800F00F0088
:104D500000EB800204F1140000EB8200418204F5B4
:104D60003070D4F8D41250F82100C8B104F5317174
:104D7000D4F8D42251F822104868804704F53071E5
:104D8000D4F8D42251F8220001F0C4FB002104F52C
:104D90003070D4F8D42240F822100020C4F8BC02AD
:104DA000002070BD0F010024100100241101002417
:104DB00070B5044604F53070D4F8D41250F8215080
:104DC0000DB9032070BD04F53170D4F8D41250F839
:104DD000210098B195F80002FF280FD095F8012224
:104DE00095F8000204F53171D4F8D46251F8261018
:104DF0008B6829469847FF2085F800020020E1E7EC
:104E000001460A20088001487047000088000024FD
:104E10002DE9F041044682210D4800F014FC0546BE
:104E200001210B4800F00FFC06468121084800F0E4
:104E30000AFC07460DB11020A8710EB14020B080C9
:104E40000FB14020B880432020800148BDE8F081A8
:104E5000CC0000242DE9F041044682210E4800F0E8
:104E6000F2FB054601210C4800F0EDFB06468121CE
:104E7000094800F0E8FB07460DB11020A87116B1F3
:104E80004FF40070B08017B14FF40070B880432029
:104E900020800148BDE8F081CC0000242DE9F041DC
:104EA000044682210D4800F0CEFB054601210B4847
:104EB00000F0C9FB06468121084800F0C4FB074604
:104EC0000DB11020A8710EB14020B0800FB140206C
:104ED000B880432020800148BDE8F081CC00002448
:104EE00070B504460E464FF4077001F015FB0546F9
:104EF00045B9002104F53070D4F8D42240F82210CE
:104F0000022070BD4FF407712846FBF767FA04F5DD
:104F10003070D4F8D41240F82150D4F8D41250F89C
:104F20002100C4F8BC02207C98BB4FF4007302221D
:104F300050480178204600F0BDFE01214D48007820
:104F400000F00F0000EB800204F1140000EB82007F
:104F500001824B02022248480178204600F0AAFE56
:104F600001214548007800F00F0000EB800204F5B5
:104F7000AA7000EB8200018210214048007800F006
:104F80000F0000EB800204F1140000EB820041826C
:104F900032E0FFE74023022236480178204600F045
:104FA00089FE01213348007800F00F0000EB8002F9
:104FB00004F1140000EB82000182402302222E48FB
:104FC0000178204600F076FE01212B48007800F0A1
:104FD0000F0000EB800204F5AA7000EB8200018252
:104FE00010212648007800F00F0000EB800204F149
:104FF000140000EB82004182082303221F4801783D
:10500000204600F057FE01211C48007800F00F00F8
:1050100000EB800204F1140000EB8200018200200A
:10502000C5F8040204F53171D4F8D42251F82210E5
:10503000086880470020C5F81402C5F81802D5F8A2
:10504000040208B902205CE7207C48B94FF40073E1
:10505000094801782046D5F8042200F043FE07E015
:105060004023054801782046D5F8042200F03AFE96
:10507000002046E70F010024100100241101002444
:1050800070B5044604F53070D4F8D41250F82150AD
:10509000D4F8D41250F8210008B9032070BD207C48
:1050A00048B94FF40073094801782046D5F8042226
:1050B00000F018FE07E04023044801782046D5F8A8
:1050C000042200F00FFE0020E8E700001001002499
:1050D000024609B90320704702F53170D2F8D43284
:1050E00040F823100020F6E710B5024602F53070B4
:1050F000D2F8D44250F824300BB9032010BDC3F8C5
:1051000004120020FAE730B503460C4603F5307070
:10511000D3F8D45250F8251009B9032030BDC1F896
:105120000842C1F810220020F8E72DE9FC410546AD
:105130000C4605F53070D5F8D41250F821600020E7
:1051400001900090804616B90320BDE8FC812078CC
:1051500000F0600000283DD020287CD1E08868B3B2
:10516000207800F08000B8B1E288607805F53171F0
:10517000D5F8D4C251F82C108B6831469847E08896
:10518000072801D9072000E0E08807463A46314663
:10519000284600F011F91CE0607886F80002E088EB
:1051A000402801D2E08800E0402086F8010296F80D
:1051B00001223146284600F0DEF80AE0607805F565
:1051C0003171D5F8D42251F8221000228B68214683
:1051D000984747E0607830B1012832D00A2813D0D0
:1051E0000B282FD121E095F89C02032805D102223B
:1051F0006946284600F0E0F805E02146284600F020
:10520000AEF84FF0030824E095F89C02032805D17E
:10521000012201A9284600F0CFF805E021462846E2
:1052200000F09DF84FF0030813E095F89C02032866
:1052300005D02146284600F092F84FF0030808E018
:1052400009E006E02146284600F089F84FF00308FF
:1052500000BF00BF06E02146284600F080F84FF06E
:10526000030800BF00BF40466FE7000070B5054669
:1052700005F53070D5F8D41250F8214001260CB94C
:10528000032070BDD4F81402C8B90120C4F8140278
:105290000C48007800F00F0000EB800205F11400CC
:1052A00000EB8200D4F810124160064801782846CD
:1052B000D4F81032D4F8082200F003FE002630465D
:1052C000DFE700000F01002470B504460D460026FC
:1052D000D4F8B802294642682046904700B1032618
:1052E000304670BD70B504460D4694F89C02012806
:1052F00004D0022803D003280CD101E000BF00BF76
:105300006888012805D10020C4F8A402204600F0D6
:1053100064F804E02946204600F021F800BF00BFF1
:1053200070BD02460020704702460020704770B5ED
:1053300006460C4615462B4622460021304600F014
:10534000D1FC002070BD70B506460C4615462B46B4
:1053500022460021304600F0B4FD002070BD70B53B
:1053600004460D468021204600F07BFD00212046AA
:1053700000F077FD70BD70B504460E46154603205B
:10538000C4F894024FF4AC700551001D05512B4632
:1053900032460021204600F0A5FC002070BD10B56B
:1053A00004460520C4F8940200231A4619462046F4
:1053B00000F098FC002010BD70B504460E4615465E
:1053C0000220C4F89402A561E5612B463246002113
:1053D000204600F076FD002070BD10B50446042084
:1053E000C4F8940200231A461946204600F069FDCD
:1053F000002010BD70B504460D46E888012804D091
:1054000029462046FFF7ABFF1EE094F89C020128D6
:1054100004D0022803D0032810D109E000BF0020E7
:10542000A060012204F108012046FFF7C5FF0AE051
:105430000122211D2046FFF7BFFF04E02946204638
:10544000FFF78DFF00BF00BF70BDF8B504460E46E4
:10545000002000900027002570880012082875D2CF
:10546000DFE800F0C7040C20C7C7A5B5207CD4F83E
:10547000B4120A68694690470746C1E0207C40B9EB
:10548000D4F8B802816A68468847074602207870D7
:1054900007E0D4F8B802C16A684688470746022088
:1054A0007870ADE0B078062878D2DFE800F0031617
:1054B000293C5063D4F8B402406838B1207CD4F859
:1054C000B4124A6869469047074605E031462046CF
:1054D000FFF745FF681CC5B267E0D4F8B4028068E6
:1054E00038B1207CD4F8B4128A68694690470746E0
:1054F00005E031462046FFF732FF681CC5B254E094
:10550000D4F8B402C06838B1207CD4F8B412CA68A8
:1055100069469047074605E031462046FFF71FFFE2
:10552000681CC5B241E0D4F8B402006938B1207CEF
:10553000D4F8B4120A6969469047074605E0314637
:105540002046FFF70CFF681CC5B22EE051E0D4F8EE
:10555000B402406938B1207CD4F8B4124A69694673
:105560009047074605E031462046FFF7F8FE681CE5
:10557000C5B21AE0D4F8B402806940B1207CD4F8F6
:10558000B4128A6969469047074606E006E031464C
:105590002046FFF7E4FE681CC5B206E0314620460F
:1055A000FFF7DDFE681CC5B200BF00BF28E0207C0D
:1055B00030B9D4F8B802416B68468847074605E021
:1055C00031462046FFF7CBFE681CC5B218E0207CB0
:1055D00040B9D4F8B802016B6846884707460720EF
:1055E000787005E031462046FFF7B9FE681CC5B269
:1055F00006E031462046FFF7B2FE681CC5B200BF88
:1056000000BF05B1F8BDF088C0B1BDF8000080B1A1
:10561000F088BDF80010884202DDBDF8000000E00F
:10562000F0880090BDF8002039462046FFF7C4FE00
:1056300007E031462046FFF792FE02E02046FFF7E2
:10564000CCFE00BFDEE72DE9F84105460F462C46AB
:105650002E464FF0000870883178884218DD307887
:1056600000900FE06946204600F020F8044660787C
:10567000052807D1A04698F80200B84200D106E0FC
:105680004FF000087088BDF800108842EADC00BFC7
:105690004046BDE8F881014600200A4602E0431C6E
:1056A000D8B2521C1378002BF9D1704710B50246BE
:1056B00010460B88047823440B800378981810BD9B
:1056C00070B504460D4694F89C02012804D00228C7
:1056D00003D003281AD101E000BF00BFE8880228E8
:1056E00004D029462046FFF73AFE14E00120E0608E
:1056F000D4F8A40218B1E06840F00200E060022291
:1057000004F10C012046FFF757FE04E0294620462D
:10571000FFF725FE00BF00BF70BD2DE9F041074631
:105720000D46904600240FB9BDE8F0813E46304654
:10573000FFF7B1FF022101EB4000A8F8000098F844
:1057400000002855601CC4B203202855601CC4B258
:1057500008E030782855761C601CC4B2002028551B
:10576000601CC4B230780028F3D100BFDCE70146EA
:10577000002031B1012906D0022906D0032908D121
:1057800005E0002007E0032005E0012003E00320FE
:1057900001E0032000BF00BF7047000070B5054660
:1057A0000C462DB92246064906A0FFF7B6FF04E0D5
:1057B0002246034903A0FFF7B0FF014870BD000077
:1057C000E40F002443444320436F6E666967000082
:1057D0000246122008800148704700002C00002477
:1057E00070B505460C462DB92246064906A0FFF7BE
:1057F00094FF04E02246034903A0FFF78EFF01480F
:1058000070BD0000E40F002443444320496E7465DA
:10581000726661636500000002460420088001484A
:10582000704700004000002470B505460C46224633
:10583000024903A0FFF771FF004870BDE40F002488
:1058400053544D6963726F656C656374726F6E69F2
:105850006373000070B505460C462DB92246064913
:1058600006A0FFF75AFF04E02246034903A0FFF712
:1058700054FF014870BD0000E40F002453544D3321
:1058800032205669727475616C20436F6D506F726F
:105890007400000070B505460C461A202080FAF707
:1058A000A5FF014870BD0000440000242DE9F0412F
:1058B00004460D46164614B90320BDE8F0810020C9
:1058C000C4F8B802C4F8C402C4F8D0020DB1C4F8D8
:1058D000B452012084F89C022670204600F04EF954
:1058E00007463846E9E72DE9F04104460D46002613
:1058F00000272946D4F8C802FBF7B3FB064630461A
:10590000FFF735FF07463846BDE8F0812DE9F04145
:1059100004460D46002600272946D4F8C802FBF7A6
:105920006BFB06463046FFF722FF07463846BDE8C8
:10593000F0812DE9F04704460F469146002F56D1DD
:1059400004F11405D4F89402022846D1D5E90201E5
:1059500088420FD9D5E90201401AA860494620467D
:10596000AA68FFF7F0FC00231A461946204600F00B
:10597000B9F932E0D5E90210884217D1E9686868C0
:10598000884213D36868D4F8981288420ED2002255
:1059900011462046FFF7D7FC0020C4F898020023E8
:1059A0001A461946204600F09DF916E094F89C022C
:1059B00003280BD1D4F8B802C06838B10020C4F86D
:1059C000D402D4F8B802C168204688478021204616
:1059D00000F047FA2046FFF7E2FC94F8A00250B32B
:1059E000204600F0C5FA002084F8A00223E047F02A
:1059F00080012046FFF795FC0646FF2E1BD0D6B946
:105A000094F89C02032816D104F52E7050F8260055
:105A1000406980B1C4F8D46204F52E7050F82600B5
:105A200039464269204690478046B8F1000F02D0BF
:105A30004046BDE8F0870020FBE72DE9F04705462A
:105A40000F4690464FF00009002F51D105F5AA7678
:105A5000D5F8940203286FD1D6E90201884210D903
:105A6000D6E90201401AB060D6E90201884201D2AB
:105A7000B06800E0F068024641462846FFF757FC50
:105A80005AE095F8AA0200F01F0020B1012804D0C6
:105A9000022812D109E0002411E040F2AE20415D5D
:105AA0002846FFF741FC044609E040F2AE20415D84
:105AB0002846FFF736FC044601E0002400BF00BF83
:105AC00094B995F89C0203280ED105F52E7050F874
:105AD0002400006940B1C5F8D44205F52E7050F895
